{
  "_format": "hh-sol-artifact-1",
  "contractName": "Fuego",
  "sourceName": "contracts/Fuego.sol",
  "abi": [
    {
      "inputs": [
        {
          "internalType": "address",
          "name": "initialOwner",
          "type": "address"
        }
      ],
      "stateMutability": "nonpayable",
      "type": "constructor"
    },
    {
      "inputs": [],
      "name": "ECDSAInvalidSignature",
      "type": "error"
    },
    {
      "inputs": [
        {
          "internalType": "uint256",
          "name": "length",
          "type": "uint256"
        }
      ],
      "name": "ECDSAInvalidSignatureLength",
      "type": "error"
    },
    {
      "inputs": [
        {
          "internalType": "bytes32",
          "name": "s",
          "type": "bytes32"
        }
      ],
      "name": "ECDSAInvalidSignatureS",
      "type": "error"
    },
    {
      "inputs": [
        {
          "internalType": "address",
          "name": "spender",
          "type": "address"
        },
        {
          "internalType": "uint256",
          "name": "allowance",
          "type": "uint256"
        },
        {
          "internalType": "uint256",
          "name": "needed",
          "type": "uint256"
        }
      ],
      "name": "ERC20InsufficientAllowance",
      "type": "error"
    },
    {
      "inputs": [
        {
          "internalType": "address",
          "name": "sender",
          "type": "address"
        },
        {
          "internalType": "uint256",
          "name": "balance",
          "type": "uint256"
        },
        {
          "internalType": "uint256",
          "name": "needed",
          "type": "uint256"
        }
      ],
      "name": "ERC20InsufficientBalance",
      "type": "error"
    },
    {
      "inputs": [
        {
          "internalType": "address",
          "name": "approver",
          "type": "address"
        }
      ],
      "name": "ERC20InvalidApprover",
      "type": "error"
    },
    {
      "inputs": [
        {
          "internalType": "address",
          "name": "receiver",
          "type": "address"
        }
      ],
      "name": "ERC20InvalidReceiver",
      "type": "error"
    },
    {
      "inputs": [
        {
          "internalType": "address",
          "name": "sender",
          "type": "address"
        }
      ],
      "name": "ERC20InvalidSender",
      "type": "error"
    },
    {
      "inputs": [
        {
          "internalType": "address",
          "name": "spender",
          "type": "address"
        }
      ],
      "name": "ERC20InvalidSpender",
      "type": "error"
    },
    {
      "inputs": [
        {
          "internalType": "uint256",
          "name": "deadline",
          "type": "uint256"
        }
      ],
      "name": "ERC2612ExpiredSignature",
      "type": "error"
    },
    {
      "inputs": [
        {
          "internalType": "address",
          "name": "signer",
          "type": "address"
        },
        {
          "internalType": "address",
          "name": "owner",
          "type": "address"
        }
      ],
      "name": "ERC2612InvalidSigner",
      "type": "error"
    },
    {
      "inputs": [
        {
          "internalType": "address",
          "name": "account",
          "type": "address"
        },
        {
          "internalType": "uint256",
          "name": "currentNonce",
          "type": "uint256"
        }
      ],
      "name": "InvalidAccountNonce",
      "type": "error"
    },
    {
      "inputs": [],
      "name": "InvalidShortString",
      "type": "error"
    },
    {
      "inputs": [
        {
          "internalType": "address",
          "name": "owner",
          "type": "address"
        }
      ],
      "name": "OwnableInvalidOwner",
      "type": "error"
    },
    {
      "inputs": [
        {
          "internalType": "address",
          "name": "account",
          "type": "address"
        }
      ],
      "name": "OwnableUnauthorizedAccount",
      "type": "error"
    },
    {
      "inputs": [
        {
          "internalType": "string",
          "name": "str",
          "type": "string"
        }
      ],
      "name": "StringTooLong",
      "type": "error"
    },
    {
      "anonymous": false,
      "inputs": [
        {
          "indexed": true,
          "internalType": "address",
          "name": "owner",
          "type": "address"
        },
        {
          "indexed": true,
          "internalType": "address",
          "name": "spender",
          "type": "address"
        },
        {
          "indexed": false,
          "internalType": "uint256",
          "name": "value",
          "type": "uint256"
        }
      ],
      "name": "Approval",
      "type": "event"
    },
    {
      "anonymous": false,
      "inputs": [],
      "name": "EIP712DomainChanged",
      "type": "event"
    },
    {
      "anonymous": false,
      "inputs": [
        {
          "indexed": true,
          "internalType": "address",
          "name": "previousOwner",
          "type": "address"
        },
        {
          "indexed": true,
          "internalType": "address",
          "name": "newOwner",
          "type": "address"
        }
      ],
      "name": "OwnershipTransferred",
      "type": "event"
    },
    {
      "anonymous": false,
      "inputs": [
        {
          "indexed": true,
          "internalType": "address",
          "name": "from",
          "type": "address"
        },
        {
          "indexed": true,
          "internalType": "address",
          "name": "to",
          "type": "address"
        },
        {
          "indexed": false,
          "internalType": "uint256",
          "name": "value",
          "type": "uint256"
        }
      ],
      "name": "Transfer",
      "type": "event"
    },
    {
      "inputs": [],
      "name": "DOMAIN_SEPARATOR",
      "outputs": [
        {
          "internalType": "bytes32",
          "name": "",
          "type": "bytes32"
        }
      ],
      "stateMutability": "view",
      "type": "function"
    },
    {
      "inputs": [
        {
          "internalType": "address",
          "name": "owner",
          "type": "address"
        },
        {
          "internalType": "address",
          "name": "spender",
          "type": "address"
        }
      ],
      "name": "allowance",
      "outputs": [
        {
          "internalType": "uint256",
          "name": "",
          "type": "uint256"
        }
      ],
      "stateMutability": "view",
      "type": "function"
    },
    {
      "inputs": [
        {
          "internalType": "address",
          "name": "spender",
          "type": "address"
        },
        {
          "internalType": "uint256",
          "name": "value",
          "type": "uint256"
        }
      ],
      "name": "approve",
      "outputs": [
        {
          "internalType": "bool",
          "name": "",
          "type": "bool"
        }
      ],
      "stateMutability": "nonpayable",
      "type": "function"
    },
    {
      "inputs": [
        {
          "internalType": "address",
          "name": "account",
          "type": "address"
        }
      ],
      "name": "balanceOf",
      "outputs": [
        {
          "internalType": "uint256",
          "name": "",
          "type": "uint256"
        }
      ],
      "stateMutability": "view",
      "type": "function"
    },
    {
      "inputs": [
        {
          "internalType": "address",
          "name": "account",
          "type": "address"
        }
      ],
      "name": "checkBalance",
      "outputs": [
        {
          "internalType": "uint256",
          "name": "",
          "type": "uint256"
        }
      ],
      "stateMutability": "view",
      "type": "function"
    },
    {
      "inputs": [],
      "name": "decimals",
      "outputs": [
        {
          "internalType": "uint8",
          "name": "",
          "type": "uint8"
        }
      ],
      "stateMutability": "view",
      "type": "function"
    },
    {
      "inputs": [],
      "name": "eip712Domain",
      "outputs": [
        {
          "internalType": "bytes1",
          "name": "fields",
          "type": "bytes1"
        },
        {
          "internalType": "string",
          "name": "name",
          "type": "string"
        },
        {
          "internalType": "string",
          "name": "version",
          "type": "string"
        },
        {
          "internalType": "uint256",
          "name": "chainId",
          "type": "uint256"
        },
        {
          "internalType": "address",
          "name": "verifyingContract",
          "type": "address"
        },
        {
          "internalType": "bytes32",
          "name": "salt",
          "type": "bytes32"
        },
        {
          "internalType": "uint256[]",
          "name": "extensions",
          "type": "uint256[]"
        }
      ],
      "stateMutability": "view",
      "type": "function"
    },
    {
      "inputs": [
        {
          "internalType": "address",
          "name": "to",
          "type": "address"
        },
        {
          "internalType": "uint256",
          "name": "amount",
          "type": "uint256"
        }
      ],
      "name": "mint",
      "outputs": [],
      "stateMutability": "nonpayable",
      "type": "function"
    },
    {
      "inputs": [],
      "name": "mintOnce",
      "outputs": [],
      "stateMutability": "nonpayable",
      "type": "function"
    },
    {
      "inputs": [],
      "name": "name",
      "outputs": [
        {
          "internalType": "string",
          "name": "",
          "type": "string"
        }
      ],
      "stateMutability": "view",
      "type": "function"
    },
    {
      "inputs": [
        {
          "internalType": "address",
          "name": "owner",
          "type": "address"
        }
      ],
      "name": "nonces",
      "outputs": [
        {
          "internalType": "uint256",
          "name": "",
          "type": "uint256"
        }
      ],
      "stateMutability": "view",
      "type": "function"
    },
    {
      "inputs": [],
      "name": "owner",
      "outputs": [
        {
          "internalType": "address",
          "name": "",
          "type": "address"
        }
      ],
      "stateMutability": "view",
      "type": "function"
    },
    {
      "inputs": [
        {
          "internalType": "address",
          "name": "owner",
          "type": "address"
        },
        {
          "internalType": "address",
          "name": "spender",
          "type": "address"
        },
        {
          "internalType": "uint256",
          "name": "value",
          "type": "uint256"
        },
        {
          "internalType": "uint256",
          "name": "deadline",
          "type": "uint256"
        },
        {
          "internalType": "uint8",
          "name": "v",
          "type": "uint8"
        },
        {
          "internalType": "bytes32",
          "name": "r",
          "type": "bytes32"
        },
        {
          "internalType": "bytes32",
          "name": "s",
          "type": "bytes32"
        }
      ],
      "name": "permit",
      "outputs": [],
      "stateMutability": "nonpayable",
      "type": "function"
    },
    {
      "inputs": [],
      "name": "renounceOwnership",
      "outputs": [],
      "stateMutability": "nonpayable",
      "type": "function"
    },
    {
      "inputs": [],
      "name": "symbol",
      "outputs": [
        {
          "internalType": "string",
          "name": "",
          "type": "string"
        }
      ],
      "stateMutability": "view",
      "type": "function"
    },
    {
      "inputs": [],
      "name": "totalSupply",
      "outputs": [
        {
          "internalType": "uint256",
          "name": "",
          "type": "uint256"
        }
      ],
      "stateMutability": "view",
      "type": "function"
    },
    {
      "inputs": [
        {
          "internalType": "address",
          "name": "to",
          "type": "address"
        },
        {
          "internalType": "uint256",
          "name": "value",
          "type": "uint256"
        }
      ],
      "name": "transfer",
      "outputs": [
        {
          "internalType": "bool",
          "name": "",
          "type": "bool"
        }
      ],
      "stateMutability": "nonpayable",
      "type": "function"
    },
    {
      "inputs": [
        {
          "internalType": "address",
          "name": "from",
          "type": "address"
        },
        {
          "internalType": "address",
          "name": "to",
          "type": "address"
        },
        {
          "internalType": "uint256",
          "name": "value",
          "type": "uint256"
        }
      ],
      "name": "transferFrom",
      "outputs": [
        {
          "internalType": "bool",
          "name": "",
          "type": "bool"
        }
      ],
      "stateMutability": "nonpayable",
      "type": "function"
    },
    {
      "inputs": [
        {
          "internalType": "address",
          "name": "newOwner",
          "type": "address"
        }
      ],
      "name": "transferOwnership",
      "outputs": [],
      "stateMutability": "nonpayable",
      "type": "function"
    }
  ],
  "bytecode": "0x61016060405234801561001157600080fd5b50604051612c2c380380612c2c833981810160405281019061003391906104a8565b6040518060400160405280600581526020017f467565676f000000000000000000000000000000000000000000000000000000815250806040518060400160405280600181526020017f3100000000000000000000000000000000000000000000000000000000000000815250836040518060400160405280600581526020017f467565676f0000000000000000000000000000000000000000000000000000008152506040518060400160405280600381526020017f46474f0000000000000000000000000000000000000000000000000000000000815250816003908161011c9190610725565b50806004908161012c9190610725565b505050600073ffffffffffffffffffffffffffffffffffffffff168173ffffffffffffffffffffffffffffffffffffffff16036101a15760006040517f1e4fbdf70000000000000000000000000000000000000000000000000000000081526004016101989190610806565b60405180910390fd5b6101b08161026260201b60201c565b506101c560068361032860201b90919060201c565b61012081815250506101e160078261032860201b90919060201c565b6101408181525050818051906020012060e08181525050808051906020012061010081815250504660a0818152505061021e61037860201b60201c565b608081815250503073ffffffffffffffffffffffffffffffffffffffff1660c08173ffffffffffffffffffffffffffffffffffffffff1681525050505050506109da565b6000600560009054906101000a900473ffffffffffffffffffffffffffffffffffffffff16905081600560006101000a81548173ffffffffffffffffffffffffffffffffffffffff021916908373ffffffffffffffffffffffffffffffffffffffff1602179055508173ffffffffffffffffffffffffffffffffffffffff168173ffffffffffffffffffffffffffffffffffffffff167f8be0079c531659141344cd1fd0a4f28419497f9722a3daafe3b4186f6b6457e060405160405180910390a35050565b600060208351101561034a57610343836103d360201b60201c565b9050610372565b8261035a8361043b60201b60201c565b60000190816103699190610725565b5060ff60001b90505b92915050565b60007f8b73c3c69bb8fe3d512ecc4cf759cc79239f7b179b0ffacaa9a75d522b39400f60e0516101005146306040516020016103b8959493929190610849565b60405160208183030381529060405280519060200120905090565b600080829050601f8151111561042057826040517f305a27a90000000000000000000000000000000000000000000000000000000081526004016104179190610921565b60405180910390fd5b80518161042c90610973565b60001c1760001b915050919050565b6000819050919050565b600080fd5b600073ffffffffffffffffffffffffffffffffffffffff82169050919050565b60006104758261044a565b9050919050565b6104858161046a565b811461049057600080fd5b50565b6000815190506104a28161047c565b92915050565b6000602082840312156104be576104bd610445565b5b60006104cc84828501610493565b91505092915050565b600081519050919050565b7f4e487b7100000000000000000000000000000000000000000000000000000000600052604160045260246000fd5b7f4e487b7100000000000000000000000000000000000000000000000000000000600052602260045260246000fd5b6000600282049050600182168061055657607f821691505b6020821081036105695761056861050f565b5b50919050565b60008190508160005260206000209050919050565b60006020601f8301049050919050565b600082821b905092915050565b6000600883026105d17fffffffffffffffffffffffffffffffffffffffffffffffffffffffffffffffff82610594565b6105db8683610594565b95508019841693508086168417925050509392505050565b6000819050919050565b6000819050919050565b600061062261061d610618846105f3565b6105fd565b6105f3565b9050919050565b6000819050919050565b61063c83610607565b61065061064882610629565b8484546105a1565b825550505050565b600090565b610665610658565b610670818484610633565b505050565b5b818110156106945761068960008261065d565b600181019050610676565b5050565b601f8211156106d9576106aa8161056f565b6106b384610584565b810160208510156106c2578190505b6106d66106ce85610584565b830182610675565b50505b505050565b600082821c905092915050565b60006106fc600019846008026106de565b1980831691505092915050565b600061071583836106eb565b9150826002028217905092915050565b61072e826104d5565b67ffffffffffffffff811115610747576107466104e0565b5b610751825461053e565b61075c828285610698565b600060209050601f83116001811461078f576000841561077d578287015190505b6107878582610709565b8655506107ef565b601f19841661079d8661056f565b60005b828110156107c5578489015182556001820191506020850194506020810190506107a0565b868310156107e257848901516107de601f8916826106eb565b8355505b6001600288020188555050505b505050505050565b6108008161046a565b82525050565b600060208201905061081b60008301846107f7565b92915050565b6000819050919050565b61083481610821565b82525050565b610843816105f3565b82525050565b600060a08201905061085e600083018861082b565b61086b602083018761082b565b610878604083018661082b565b610885606083018561083a565b61089260808301846107f7565b9695505050505050565b600082825260208201905092915050565b60005b838110156108cb5780820151818401526020810190506108b0565b60008484015250505050565b6000601f19601f8301169050919050565b60006108f3826104d5565b6108fd818561089c565b935061090d8185602086016108ad565b610916816108d7565b840191505092915050565b6000602082019050818103600083015261093b81846108e8565b905092915050565b600081519050919050565b6000819050602082019050919050565b600061096a8251610821565b80915050919050565b600061097e82610943565b826109888461094e565b90506109938161095e565b925060208210156109d3576109ce7fffffffffffffffffffffffffffffffffffffffffffffffffffffffffffffffff83602003600802610594565b831692505b5050919050565b60805160a05160c05160e0516101005161012051610140516121f8610a346000396000610f4701526000610f0c0152600061145c0152600061143b01526000610c3801526000610c8e01526000610cb701526121f86000f3fe608060405234801561001057600080fd5b50600436106101215760003560e01c806370a08231116100ad57806395d89b411161007157806395d89b4114610300578063a9059cbb1461031e578063d505accf1461034e578063dd62ed3e1461036a578063f2fde38b1461039a57610121565b806370a0823114610254578063715018a6146102845780637ecebe001461028e57806384b0196e146102be5780638da5cb5b146102e257610121565b8063313ce567116100f4578063313ce567146101c25780633644e515146101e057806340c10f19146101fe5780635f5152261461021a5780636bdfbb351461024a57610121565b806306fdde0314610126578063095ea7b31461014457806318160ddd1461017457806323b872dd14610192575b600080fd5b61012e6103b6565b60405161013b9190611949565b60405180910390f35b61015e60048036038101906101599190611a04565b610448565b60405161016b9190611a5f565b60405180910390f35b61017c61046b565b6040516101899190611a89565b60405180910390f35b6101ac60048036038101906101a79190611aa4565b610475565b6040516101b99190611a5f565b60405180910390f35b6101ca6104a4565b6040516101d79190611b13565b60405180910390f35b6101e86104ad565b6040516101f59190611b47565b60405180910390f35b61021860048036038101906102139190611a04565b6104bc565b005b610234600480360381019061022f9190611b62565b6104d2565b6040516102419190611a89565b60405180910390f35b6102526104e4565b005b61026e60048036038101906102699190611b62565b610645565b60405161027b9190611a89565b60405180910390f35b61028c61068d565b005b6102a860048036038101906102a39190611b62565b6106a1565b6040516102b59190611a89565b60405180910390f35b6102c66106b3565b6040516102d99796959493929190611c97565b60405180910390f35b6102ea61075d565b6040516102f79190611d1b565b60405180910390f35b610308610787565b6040516103159190611949565b60405180910390f35b61033860048036038101906103339190611a04565b610819565b6040516103459190611a5f565b60405180910390f35b61036860048036038101906103639190611d8e565b61083c565b005b610384600480360381019061037f9190611e30565b610984565b6040516103919190611a89565b60405180910390f35b6103b460048036038101906103af9190611b62565b610a0b565b005b6060600380546103c590611e9f565b80601f01602080910402602001604051908101604052809291908181526020018280546103f190611e9f565b801561043e5780601f106104135761010080835404028352916020019161043e565b820191906000526020600020905b81548152906001019060200180831161042157829003601f168201915b5050505050905090565b600080610453610a91565b9050610460818585610a99565b600191505092915050565b6000600254905090565b600080610480610a91565b905061048d858285610aab565b610498858585610b40565b60019150509392505050565b60006012905090565b60006104b7610c34565b905090565b6104c4610ceb565b6104ce8282610d72565b5050565b60006104dd82610645565b9050919050565b600960003373ffffffffffffffffffffffffffffffffffffffff1673ffffffffffffffffffffffffffffffffffffffff16815260200190815260200160002060009054906101000a900460ff1615610571576040517f08c379a000000000000000000000000000000000000000000000000000000000815260040161056890611f1c565b60405180910390fd5b3273ffffffffffffffffffffffffffffffffffffffff163373ffffffffffffffffffffffffffffffffffffffff16146105df576040517f08c379a00000000000000000000000000000000000000000000000000000000081526004016105d690611f88565b60405180910390fd5b6001600960003373ffffffffffffffffffffffffffffffffffffffff1673ffffffffffffffffffffffffffffffffffffffff16815260200190815260200160002060006101000a81548160ff021916908315150217905550610643336107d0610d72565b565b60008060008373ffffffffffffffffffffffffffffffffffffffff1673ffffffffffffffffffffffffffffffffffffffff168152602001908152602001600020549050919050565b610695610ceb565b61069f6000610df4565b565b60006106ac82610eba565b9050919050565b6000606080600080600060606106c7610f03565b6106cf610f3e565b46306000801b600067ffffffffffffffff8111156106f0576106ef611fa8565b5b60405190808252806020026020018201604052801561071e5781602001602082028036833780820191505090505b507f0f00000000000000000000000000000000000000000000000000000000000000959493929190965096509650965096509650965090919293949596565b6000600560009054906101000a900473ffffffffffffffffffffffffffffffffffffffff16905090565b60606004805461079690611e9f565b80601f01602080910402602001604051908101604052809291908181526020018280546107c290611e9f565b801561080f5780601f106107e45761010080835404028352916020019161080f565b820191906000526020600020905b8154815290600101906020018083116107f257829003601f168201915b5050505050905090565b600080610824610a91565b9050610831818585610b40565b600191505092915050565b8342111561088157836040517f627913020000000000000000000000000000000000000000000000000000000081526004016108789190611a89565b60405180910390fd5b60007f6e71edae12b1b97f4d1f60370fef10105fa2faae0126114a169c64845d6126c98888886108b08c610f79565b896040516020016108c696959493929190611fd7565b60405160208183030381529060405280519060200120905060006108e982610fd0565b905060006108f982878787610fea565b90508973ffffffffffffffffffffffffffffffffffffffff168173ffffffffffffffffffffffffffffffffffffffff161461096d57808a6040517f4b800e46000000000000000000000000000000000000000000000000000000008152600401610964929190612038565b60405180910390fd5b6109788a8a8a610a99565b50505050505050505050565b6000600160008473ffffffffffffffffffffffffffffffffffffffff1673ffffffffffffffffffffffffffffffffffffffff16815260200190815260200160002060008373ffffffffffffffffffffffffffffffffffffffff1673ffffffffffffffffffffffffffffffffffffffff16815260200190815260200160002054905092915050565b610a13610ceb565b600073ffffffffffffffffffffffffffffffffffffffff168173ffffffffffffffffffffffffffffffffffffffff1603610a855760006040517f1e4fbdf7000000000000000000000000000000000000000000000000000000008152600401610a7c9190611d1b565b60405180910390fd5b610a8e81610df4565b50565b600033905090565b610aa6838383600161101a565b505050565b6000610ab78484610984565b90507fffffffffffffffffffffffffffffffffffffffffffffffffffffffffffffffff811015610b3a5781811015610b2a578281836040517ffb8f41b2000000000000000000000000000000000000000000000000000000008152600401610b2193929190612061565b60405180910390fd5b610b398484848403600061101a565b5b50505050565b600073ffffffffffffffffffffffffffffffffffffffff168373ffffffffffffffffffffffffffffffffffffffff1603610bb25760006040517f96c6fd1e000000000000000000000000000000000000000000000000000000008152600401610ba99190611d1b565b60405180910390fd5b600073ffffffffffffffffffffffffffffffffffffffff168273ffffffffffffffffffffffffffffffffffffffff1603610c245760006040517fec442f05000000000000000000000000000000000000000000000000000000008152600401610c1b9190611d1b565b60405180910390fd5b610c2f8383836111f1565b505050565b60007f000000000000000000000000000000000000000000000000000000000000000073ffffffffffffffffffffffffffffffffffffffff163073ffffffffffffffffffffffffffffffffffffffff16148015610cb057507f000000000000000000000000000000000000000000000000000000000000000046145b15610cdd577f00000000000000000000000000000000000000000000000000000000000000009050610ce8565b610ce5611416565b90505b90565b610cf3610a91565b73ffffffffffffffffffffffffffffffffffffffff16610d1161075d565b73ffffffffffffffffffffffffffffffffffffffff1614610d7057610d34610a91565b6040517f118cdaa7000000000000000000000000000000000000000000000000000000008152600401610d679190611d1b565b60405180910390fd5b565b600073ffffffffffffffffffffffffffffffffffffffff168273ffffffffffffffffffffffffffffffffffffffff1603610de45760006040517fec442f05000000000000000000000000000000000000000000000000000000008152600401610ddb9190611d1b565b60405180910390fd5b610df0600083836111f1565b5050565b6000600560009054906101000a900473ffffffffffffffffffffffffffffffffffffffff16905081600560006101000a81548173ffffffffffffffffffffffffffffffffffffffff021916908373ffffffffffffffffffffffffffffffffffffffff1602179055508173ffffffffffffffffffffffffffffffffffffffff168173ffffffffffffffffffffffffffffffffffffffff167f8be0079c531659141344cd1fd0a4f28419497f9722a3daafe3b4186f6b6457e060405160405180910390a35050565b6000600860008373ffffffffffffffffffffffffffffffffffffffff1673ffffffffffffffffffffffffffffffffffffffff168152602001908152602001600020549050919050565b6060610f3960067f00000000000000000000000000000000000000000000000000000000000000006114ac90919063ffffffff16565b905090565b6060610f7460077f00000000000000000000000000000000000000000000000000000000000000006114ac90919063ffffffff16565b905090565b6000600860008373ffffffffffffffffffffffffffffffffffffffff1673ffffffffffffffffffffffffffffffffffffffff1681526020019081526020016000206000815480929190600101919050559050919050565b6000610fe3610fdd610c34565b8361155c565b9050919050565b600080600080610ffc8888888861159d565b92509250925061100c8282611691565b829350505050949350505050565b600073ffffffffffffffffffffffffffffffffffffffff168473ffffffffffffffffffffffffffffffffffffffff160361108c5760006040517fe602df050000000000000000000000000000000000000000000000000000000081526004016110839190611d1b565b60405180910390fd5b600073ffffffffffffffffffffffffffffffffffffffff168373ffffffffffffffffffffffffffffffffffffffff16036110fe5760006040517f94280d620000000000000000000000000000000000000000000000000000000081526004016110f59190611d1b565b60405180910390fd5b81600160008673ffffffffffffffffffffffffffffffffffffffff1673ffffffffffffffffffffffffffffffffffffffff16815260200190815260200160002060008573ffffffffffffffffffffffffffffffffffffffff1673ffffffffffffffffffffffffffffffffffffffff1681526020019081526020016000208190555080156111eb578273ffffffffffffffffffffffffffffffffffffffff168473ffffffffffffffffffffffffffffffffffffffff167f8c5be1e5ebec7d5bd14f71427d1e84f3dd0314c0f7b2291e5b200ac8c7c3b925846040516111e29190611a89565b60405180910390a35b50505050565b600073ffffffffffffffffffffffffffffffffffffffff168373ffffffffffffffffffffffffffffffffffffffff160361124357806002600082825461123791906120c7565b92505081905550611316565b60008060008573ffffffffffffffffffffffffffffffffffffffff1673ffffffffffffffffffffffffffffffffffffffff168152602001908152602001600020549050818110156112cf578381836040517fe450d38c0000000000000000000000000000000000000000000000000000000081526004016112c693929190612061565b60405180910390fd5b8181036000808673ffffffffffffffffffffffffffffffffffffffff1673ffffffffffffffffffffffffffffffffffffffff16815260200190815260200160002081905550505b600073ffffffffffffffffffffffffffffffffffffffff168273ffffffffffffffffffffffffffffffffffffffff160361135f57806002600082825403925050819055506113ac565b806000808473ffffffffffffffffffffffffffffffffffffffff1673ffffffffffffffffffffffffffffffffffffffff168152602001908152602001600020600082825401925050819055505b8173ffffffffffffffffffffffffffffffffffffffff168373ffffffffffffffffffffffffffffffffffffffff167fddf252ad1be2c89b69c2b068fc378daa952ba7f163c4a11628f55a4df523b3ef836040516114099190611a89565b60405180910390a3505050565b60007f8b73c3c69bb8fe3d512ecc4cf759cc79239f7b179b0ffacaa9a75d522b39400f7f00000000000000000000000000000000000000000000000000000000000000007f000000000000000000000000000000000000000000000000000000000000000046306040516020016114919594939291906120fb565b60405160208183030381529060405280519060200120905090565b606060ff60001b83146114c9576114c2836117f5565b9050611556565b8180546114d590611e9f565b80601f016020809104026020016040519081016040528092919081815260200182805461150190611e9f565b801561154e5780601f106115235761010080835404028352916020019161154e565b820191906000526020600020905b81548152906001019060200180831161153157829003601f168201915b505050505090505b92915050565b60006040517f190100000000000000000000000000000000000000000000000000000000000081528360028201528260228201526042812091505092915050565b60008060007f7fffffffffffffffffffffffffffffff5d576e7357a4501ddfe92f46681b20a08460001c11156115dd576000600385925092509250611687565b600060018888888860405160008152602001604052604051611602949392919061214e565b6020604051602081039080840390855afa158015611624573d6000803e3d6000fd5b505050602060405103519050600073ffffffffffffffffffffffffffffffffffffffff168173ffffffffffffffffffffffffffffffffffffffff160361167857600060016000801b93509350935050611687565b8060008060001b935093509350505b9450945094915050565b600060038111156116a5576116a4612193565b5b8260038111156116b8576116b7612193565b5b03156117f157600160038111156116d2576116d1612193565b5b8260038111156116e5576116e4612193565b5b0361171c576040517ff645eedf00000000000000000000000000000000000000000000000000000000815260040160405180910390fd5b600260038111156117305761172f612193565b5b82600381111561174357611742612193565b5b03611788578060001c6040517ffce698f700000000000000000000000000000000000000000000000000000000815260040161177f9190611a89565b60405180910390fd5b60038081111561179b5761179a612193565b5b8260038111156117ae576117ad612193565b5b036117f057806040517fd78bce0c0000000000000000000000000000000000000000000000000000000081526004016117e79190611b47565b60405180910390fd5b5b5050565b6060600061180283611869565b90506000602067ffffffffffffffff81111561182157611820611fa8565b5b6040519080825280601f01601f1916602001820160405280156118535781602001600182028036833780820191505090505b5090508181528360208201528092505050919050565b60008060ff8360001c169050601f8111156118b0576040517fb3512b0c00000000000000000000000000000000000000000000000000000000815260040160405180910390fd5b80915050919050565b600081519050919050565b600082825260208201905092915050565b60005b838110156118f35780820151818401526020810190506118d8565b60008484015250505050565b6000601f19601f8301169050919050565b600061191b826118b9565b61192581856118c4565b93506119358185602086016118d5565b61193e816118ff565b840191505092915050565b600060208201905081810360008301526119638184611910565b905092915050565b600080fd5b600073ffffffffffffffffffffffffffffffffffffffff82169050919050565b600061199b82611970565b9050919050565b6119ab81611990565b81146119b657600080fd5b50565b6000813590506119c8816119a2565b92915050565b6000819050919050565b6119e1816119ce565b81146119ec57600080fd5b50565b6000813590506119fe816119d8565b92915050565b60008060408385031215611a1b57611a1a61196b565b5b6000611a29858286016119b9565b9250506020611a3a858286016119ef565b9150509250929050565b60008115159050919050565b611a5981611a44565b82525050565b6000602082019050611a746000830184611a50565b92915050565b611a83816119ce565b82525050565b6000602082019050611a9e6000830184611a7a565b92915050565b600080600060608486031215611abd57611abc61196b565b5b6000611acb868287016119b9565b9350506020611adc868287016119b9565b9250506040611aed868287016119ef565b9150509250925092565b600060ff82169050919050565b611b0d81611af7565b82525050565b6000602082019050611b286000830184611b04565b92915050565b6000819050919050565b611b4181611b2e565b82525050565b6000602082019050611b5c6000830184611b38565b92915050565b600060208284031215611b7857611b7761196b565b5b6000611b86848285016119b9565b91505092915050565b60007fff0000000000000000000000000000000000000000000000000000000000000082169050919050565b611bc481611b8f565b82525050565b611bd381611990565b82525050565b600081519050919050565b600082825260208201905092915050565b6000819050602082019050919050565b611c0e816119ce565b82525050565b6000611c208383611c05565b60208301905092915050565b6000602082019050919050565b6000611c4482611bd9565b611c4e8185611be4565b9350611c5983611bf5565b8060005b83811015611c8a578151611c718882611c14565b9750611c7c83611c2c565b925050600181019050611c5d565b5085935050505092915050565b600060e082019050611cac600083018a611bbb565b8181036020830152611cbe8189611910565b90508181036040830152611cd28188611910565b9050611ce16060830187611a7a565b611cee6080830186611bca565b611cfb60a0830185611b38565b81810360c0830152611d0d8184611c39565b905098975050505050505050565b6000602082019050611d306000830184611bca565b92915050565b611d3f81611af7565b8114611d4a57600080fd5b50565b600081359050611d5c81611d36565b92915050565b611d6b81611b2e565b8114611d7657600080fd5b50565b600081359050611d8881611d62565b92915050565b600080600080600080600060e0888a031215611dad57611dac61196b565b5b6000611dbb8a828b016119b9565b9750506020611dcc8a828b016119b9565b9650506040611ddd8a828b016119ef565b9550506060611dee8a828b016119ef565b9450506080611dff8a828b01611d4d565b93505060a0611e108a828b01611d79565b92505060c0611e218a828b01611d79565b91505092959891949750929550565b60008060408385031215611e4757611e4661196b565b5b6000611e55858286016119b9565b9250506020611e66858286016119b9565b9150509250929050565b7f4e487b7100000000000000000000000000000000000000000000000000000000600052602260045260246000fd5b60006002820490506001821680611eb757607f821691505b602082108103611eca57611ec9611e70565b5b50919050565b7f546f6b656e20616c726561647920636c61696d65642e00000000000000000000600082015250565b6000611f066016836118c4565b9150611f1182611ed0565b602082019050919050565b60006020820190508181036000830152611f3581611ef9565b9050919050565b7f436f6e747261637473206e6f7420616c6c6f7765642e00000000000000000000600082015250565b6000611f726016836118c4565b9150611f7d82611f3c565b602082019050919050565b60006020820190508181036000830152611fa181611f65565b9050919050565b7f4e487b7100000000000000000000000000000000000000000000000000000000600052604160045260246000fd5b600060c082019050611fec6000830189611b38565b611ff96020830188611bca565b6120066040830187611bca565b6120136060830186611a7a565b6120206080830185611a7a565b61202d60a0830184611a7a565b979650505050505050565b600060408201905061204d6000830185611bca565b61205a6020830184611bca565b9392505050565b60006060820190506120766000830186611bca565b6120836020830185611a7a565b6120906040830184611a7a565b949350505050565b7f4e487b7100000000000000000000000000000000000000000000000000000000600052601160045260246000fd5b60006120d2826119ce565b91506120dd836119ce565b92508282019050808211156120f5576120f4612098565b5b92915050565b600060a0820190506121106000830188611b38565b61211d6020830187611b38565b61212a6040830186611b38565b6121376060830185611a7a565b6121446080830184611bca565b9695505050505050565b60006080820190506121636000830187611b38565b6121706020830186611b04565b61217d6040830185611b38565b61218a6060830184611b38565b95945050505050565b7f4e487b7100000000000000000000000000000000000000000000000000000000600052602160045260246000fdfea2646970667358221220cd99b473a6991868161429a47588fcc216ca0cc7731b62e07968a46c9b57602f64736f6c634300081c0033",
  "linkReferences": {},
  "deployedLinkReferences": {}
}