{
  "_format": "hh-sol-artifact-1",
  "contractName": "Fuego",
  "sourceName": "contracts/Fuego.sol",
  "abi": [
    {
      "inputs": [
        {
          "internalType": "address",
          "name": "initialOwner",
          "type": "address"
        }
      ],
      "stateMutability": "nonpayable",
      "type": "constructor"
    },
    {
      "inputs": [],
      "name": "ECDSAInvalidSignature",
      "type": "error"
    },
    {
      "inputs": [
        {
          "internalType": "uint256",
          "name": "length",
          "type": "uint256"
        }
      ],
      "name": "ECDSAInvalidSignatureLength",
      "type": "error"
    },
    {
      "inputs": [
        {
          "internalType": "bytes32",
          "name": "s",
          "type": "bytes32"
        }
      ],
      "name": "ECDSAInvalidSignatureS",
      "type": "error"
    },
    {
      "inputs": [
        {
          "internalType": "address",
          "name": "spender",
          "type": "address"
        },
        {
          "internalType": "uint256",
          "name": "allowance",
          "type": "uint256"
        },
        {
          "internalType": "uint256",
          "name": "needed",
          "type": "uint256"
        }
      ],
      "name": "ERC20InsufficientAllowance",
      "type": "error"
    },
    {
      "inputs": [
        {
          "internalType": "address",
          "name": "sender",
          "type": "address"
        },
        {
          "internalType": "uint256",
          "name": "balance",
          "type": "uint256"
        },
        {
          "internalType": "uint256",
          "name": "needed",
          "type": "uint256"
        }
      ],
      "name": "ERC20InsufficientBalance",
      "type": "error"
    },
    {
      "inputs": [
        {
          "internalType": "address",
          "name": "approver",
          "type": "address"
        }
      ],
      "name": "ERC20InvalidApprover",
      "type": "error"
    },
    {
      "inputs": [
        {
          "internalType": "address",
          "name": "receiver",
          "type": "address"
        }
      ],
      "name": "ERC20InvalidReceiver",
      "type": "error"
    },
    {
      "inputs": [
        {
          "internalType": "address",
          "name": "sender",
          "type": "address"
        }
      ],
      "name": "ERC20InvalidSender",
      "type": "error"
    },
    {
      "inputs": [
        {
          "internalType": "address",
          "name": "spender",
          "type": "address"
        }
      ],
      "name": "ERC20InvalidSpender",
      "type": "error"
    },
    {
      "inputs": [
        {
          "internalType": "uint256",
          "name": "deadline",
          "type": "uint256"
        }
      ],
      "name": "ERC2612ExpiredSignature",
      "type": "error"
    },
    {
      "inputs": [
        {
          "internalType": "address",
          "name": "signer",
          "type": "address"
        },
        {
          "internalType": "address",
          "name": "owner",
          "type": "address"
        }
      ],
      "name": "ERC2612InvalidSigner",
      "type": "error"
    },
    {
      "inputs": [
        {
          "internalType": "address",
          "name": "account",
          "type": "address"
        },
        {
          "internalType": "uint256",
          "name": "currentNonce",
          "type": "uint256"
        }
      ],
      "name": "InvalidAccountNonce",
      "type": "error"
    },
    {
      "inputs": [],
      "name": "InvalidShortString",
      "type": "error"
    },
    {
      "inputs": [
        {
          "internalType": "address",
          "name": "owner",
          "type": "address"
        }
      ],
      "name": "OwnableInvalidOwner",
      "type": "error"
    },
    {
      "inputs": [
        {
          "internalType": "address",
          "name": "account",
          "type": "address"
        }
      ],
      "name": "OwnableUnauthorizedAccount",
      "type": "error"
    },
    {
      "inputs": [
        {
          "internalType": "string",
          "name": "str",
          "type": "string"
        }
      ],
      "name": "StringTooLong",
      "type": "error"
    },
    {
      "anonymous": false,
      "inputs": [
        {
          "indexed": true,
          "internalType": "address",
          "name": "owner",
          "type": "address"
        },
        {
          "indexed": true,
          "internalType": "address",
          "name": "spender",
          "type": "address"
        },
        {
          "indexed": false,
          "internalType": "uint256",
          "name": "value",
          "type": "uint256"
        }
      ],
      "name": "Approval",
      "type": "event"
    },
    {
      "anonymous": false,
      "inputs": [],
      "name": "EIP712DomainChanged",
      "type": "event"
    },
    {
      "anonymous": false,
      "inputs": [
        {
          "indexed": true,
          "internalType": "address",
          "name": "previousOwner",
          "type": "address"
        },
        {
          "indexed": true,
          "internalType": "address",
          "name": "newOwner",
          "type": "address"
        }
      ],
      "name": "OwnershipTransferred",
      "type": "event"
    },
    {
      "anonymous": false,
      "inputs": [
        {
          "indexed": true,
          "internalType": "address",
          "name": "from",
          "type": "address"
        },
        {
          "indexed": true,
          "internalType": "address",
          "name": "to",
          "type": "address"
        },
        {
          "indexed": false,
          "internalType": "uint256",
          "name": "value",
          "type": "uint256"
        }
      ],
      "name": "Transfer",
      "type": "event"
    },
    {
      "inputs": [],
      "name": "DOMAIN_SEPARATOR",
      "outputs": [
        {
          "internalType": "bytes32",
          "name": "",
          "type": "bytes32"
        }
      ],
      "stateMutability": "view",
      "type": "function"
    },
    {
      "inputs": [
        {
          "internalType": "address",
          "name": "owner",
          "type": "address"
        },
        {
          "internalType": "address",
          "name": "spender",
          "type": "address"
        }
      ],
      "name": "allowance",
      "outputs": [
        {
          "internalType": "uint256",
          "name": "",
          "type": "uint256"
        }
      ],
      "stateMutability": "view",
      "type": "function"
    },
    {
      "inputs": [
        {
          "internalType": "address",
          "name": "spender",
          "type": "address"
        },
        {
          "internalType": "uint256",
          "name": "value",
          "type": "uint256"
        }
      ],
      "name": "approve",
      "outputs": [
        {
          "internalType": "bool",
          "name": "",
          "type": "bool"
        }
      ],
      "stateMutability": "nonpayable",
      "type": "function"
    },
    {
      "inputs": [
        {
          "internalType": "address",
          "name": "account",
          "type": "address"
        }
      ],
      "name": "balanceOf",
      "outputs": [
        {
          "internalType": "uint256",
          "name": "",
          "type": "uint256"
        }
      ],
      "stateMutability": "view",
      "type": "function"
    },
    {
      "inputs": [
        {
          "internalType": "address",
          "name": "account",
          "type": "address"
        }
      ],
      "name": "checkBalance",
      "outputs": [
        {
          "internalType": "uint256",
          "name": "",
          "type": "uint256"
        }
      ],
      "stateMutability": "view",
      "type": "function"
    },
    {
      "inputs": [],
      "name": "decimals",
      "outputs": [
        {
          "internalType": "uint8",
          "name": "",
          "type": "uint8"
        }
      ],
      "stateMutability": "view",
      "type": "function"
    },
    {
      "inputs": [],
      "name": "eip712Domain",
      "outputs": [
        {
          "internalType": "bytes1",
          "name": "fields",
          "type": "bytes1"
        },
        {
          "internalType": "string",
          "name": "name",
          "type": "string"
        },
        {
          "internalType": "string",
          "name": "version",
          "type": "string"
        },
        {
          "internalType": "uint256",
          "name": "chainId",
          "type": "uint256"
        },
        {
          "internalType": "address",
          "name": "verifyingContract",
          "type": "address"
        },
        {
          "internalType": "bytes32",
          "name": "salt",
          "type": "bytes32"
        },
        {
          "internalType": "uint256[]",
          "name": "extensions",
          "type": "uint256[]"
        }
      ],
      "stateMutability": "view",
      "type": "function"
    },
    {
      "inputs": [
        {
          "internalType": "address",
          "name": "to",
          "type": "address"
        },
        {
          "internalType": "uint256",
          "name": "amount",
          "type": "uint256"
        }
      ],
      "name": "mint",
      "outputs": [],
      "stateMutability": "nonpayable",
      "type": "function"
    },
    {
      "inputs": [],
      "name": "mintOnce",
      "outputs": [],
      "stateMutability": "nonpayable",
      "type": "function"
    },
    {
      "inputs": [],
      "name": "name",
      "outputs": [
        {
          "internalType": "string",
          "name": "",
          "type": "string"
        }
      ],
      "stateMutability": "view",
      "type": "function"
    },
    {
      "inputs": [
        {
          "internalType": "address",
          "name": "owner",
          "type": "address"
        }
      ],
      "name": "nonces",
      "outputs": [
        {
          "internalType": "uint256",
          "name": "",
          "type": "uint256"
        }
      ],
      "stateMutability": "view",
      "type": "function"
    },
    {
      "inputs": [],
      "name": "owner",
      "outputs": [
        {
          "internalType": "address",
          "name": "",
          "type": "address"
        }
      ],
      "stateMutability": "view",
      "type": "function"
    },
    {
      "inputs": [
        {
          "internalType": "address",
          "name": "owner",
          "type": "address"
        },
        {
          "internalType": "address",
          "name": "spender",
          "type": "address"
        },
        {
          "internalType": "uint256",
          "name": "value",
          "type": "uint256"
        },
        {
          "internalType": "uint256",
          "name": "deadline",
          "type": "uint256"
        },
        {
          "internalType": "uint8",
          "name": "v",
          "type": "uint8"
        },
        {
          "internalType": "bytes32",
          "name": "r",
          "type": "bytes32"
        },
        {
          "internalType": "bytes32",
          "name": "s",
          "type": "bytes32"
        }
      ],
      "name": "permit",
      "outputs": [],
      "stateMutability": "nonpayable",
      "type": "function"
    },
    {
      "inputs": [],
      "name": "renounceOwnership",
      "outputs": [],
      "stateMutability": "nonpayable",
      "type": "function"
    },
    {
      "inputs": [],
      "name": "symbol",
      "outputs": [
        {
          "internalType": "string",
          "name": "",
          "type": "string"
        }
      ],
      "stateMutability": "view",
      "type": "function"
    },
    {
      "inputs": [],
      "name": "totalSupply",
      "outputs": [
        {
          "internalType": "uint256",
          "name": "",
          "type": "uint256"
        }
      ],
      "stateMutability": "view",
      "type": "function"
    },
    {
      "inputs": [
        {
          "internalType": "address",
          "name": "to",
          "type": "address"
        },
        {
          "internalType": "uint256",
          "name": "value",
          "type": "uint256"
        }
      ],
      "name": "transfer",
      "outputs": [
        {
          "internalType": "bool",
          "name": "",
          "type": "bool"
        }
      ],
      "stateMutability": "nonpayable",
      "type": "function"
    },
    {
      "inputs": [
        {
          "internalType": "address",
          "name": "from",
          "type": "address"
        },
        {
          "internalType": "address",
          "name": "to",
          "type": "address"
        },
        {
          "internalType": "uint256",
          "name": "value",
          "type": "uint256"
        }
      ],
      "name": "transferFrom",
      "outputs": [
        {
          "internalType": "bool",
          "name": "",
          "type": "bool"
        }
      ],
      "stateMutability": "nonpayable",
      "type": "function"
    },
    {
      "inputs": [
        {
          "internalType": "address",
          "name": "newOwner",
          "type": "address"
        }
      ],
      "name": "transferOwnership",
      "outputs": [],
      "stateMutability": "nonpayable",
      "type": "function"
    },
    {
      "inputs": [
        {
          "internalType": "address",
          "name": "to",
          "type": "address"
        },
        {
          "internalType": "uint256",
          "name": "amount",
          "type": "uint256"
        }
      ],
      "name": "transferTokens",
      "outputs": [
        {
          "internalType": "bool",
          "name": "",
          "type": "bool"
        }
      ],
      "stateMutability": "nonpayable",
      "type": "function"
    }
  ],
  "bytecode": "0x61016060405234801561001157600080fd5b50604051612c7e380380612c7e833981810160405281019061003391906104a8565b6040518060400160405280600581526020017f467565676f000000000000000000000000000000000000000000000000000000815250806040518060400160405280600181526020017f3100000000000000000000000000000000000000000000000000000000000000815250836040518060400160405280600581526020017f467565676f0000000000000000000000000000000000000000000000000000008152506040518060400160405280600381526020017f46474f0000000000000000000000000000000000000000000000000000000000815250816003908161011c9190610725565b50806004908161012c9190610725565b505050600073ffffffffffffffffffffffffffffffffffffffff168173ffffffffffffffffffffffffffffffffffffffff16036101a15760006040517f1e4fbdf70000000000000000000000000000000000000000000000000000000081526004016101989190610806565b60405180910390fd5b6101b08161026260201b60201c565b506101c560068361032860201b90919060201c565b61012081815250506101e160078261032860201b90919060201c565b6101408181525050818051906020012060e08181525050808051906020012061010081815250504660a0818152505061021e61037860201b60201c565b608081815250503073ffffffffffffffffffffffffffffffffffffffff1660c08173ffffffffffffffffffffffffffffffffffffffff1681525050505050506109da565b6000600560009054906101000a900473ffffffffffffffffffffffffffffffffffffffff16905081600560006101000a81548173ffffffffffffffffffffffffffffffffffffffff021916908373ffffffffffffffffffffffffffffffffffffffff1602179055508173ffffffffffffffffffffffffffffffffffffffff168173ffffffffffffffffffffffffffffffffffffffff167f8be0079c531659141344cd1fd0a4f28419497f9722a3daafe3b4186f6b6457e060405160405180910390a35050565b600060208351101561034a57610343836103d360201b60201c565b9050610372565b8261035a8361043b60201b60201c565b60000190816103699190610725565b5060ff60001b90505b92915050565b60007f8b73c3c69bb8fe3d512ecc4cf759cc79239f7b179b0ffacaa9a75d522b39400f60e0516101005146306040516020016103b8959493929190610849565b60405160208183030381529060405280519060200120905090565b600080829050601f8151111561042057826040517f305a27a90000000000000000000000000000000000000000000000000000000081526004016104179190610921565b60405180910390fd5b80518161042c90610973565b60001c1760001b915050919050565b6000819050919050565b600080fd5b600073ffffffffffffffffffffffffffffffffffffffff82169050919050565b60006104758261044a565b9050919050565b6104858161046a565b811461049057600080fd5b50565b6000815190506104a28161047c565b92915050565b6000602082840312156104be576104bd610445565b5b60006104cc84828501610493565b91505092915050565b600081519050919050565b7f4e487b7100000000000000000000000000000000000000000000000000000000600052604160045260246000fd5b7f4e487b7100000000000000000000000000000000000000000000000000000000600052602260045260246000fd5b6000600282049050600182168061055657607f821691505b6020821081036105695761056861050f565b5b50919050565b60008190508160005260206000209050919050565b60006020601f8301049050919050565b600082821b905092915050565b6000600883026105d17fffffffffffffffffffffffffffffffffffffffffffffffffffffffffffffffff82610594565b6105db8683610594565b95508019841693508086168417925050509392505050565b6000819050919050565b6000819050919050565b600061062261061d610618846105f3565b6105fd565b6105f3565b9050919050565b6000819050919050565b61063c83610607565b61065061064882610629565b8484546105a1565b825550505050565b600090565b610665610658565b610670818484610633565b505050565b5b818110156106945761068960008261065d565b600181019050610676565b5050565b601f8211156106d9576106aa8161056f565b6106b384610584565b810160208510156106c2578190505b6106d66106ce85610584565b830182610675565b50505b505050565b600082821c905092915050565b60006106fc600019846008026106de565b1980831691505092915050565b600061071583836106eb565b9150826002028217905092915050565b61072e826104d5565b67ffffffffffffffff811115610747576107466104e0565b5b610751825461053e565b61075c828285610698565b600060209050601f83116001811461078f576000841561077d578287015190505b6107878582610709565b8655506107ef565b601f19841661079d8661056f565b60005b828110156107c5578489015182556001820191506020850194506020810190506107a0565b868310156107e257848901516107de601f8916826106eb565b8355505b6001600288020188555050505b505050505050565b6108008161046a565b82525050565b600060208201905061081b60008301846107f7565b92915050565b6000819050919050565b61083481610821565b82525050565b610843816105f3565b82525050565b600060a08201905061085e600083018861082b565b61086b602083018761082b565b610878604083018661082b565b610885606083018561083a565b61089260808301846107f7565b9695505050505050565b600082825260208201905092915050565b60005b838110156108cb5780820151818401526020810190506108b0565b60008484015250505050565b6000601f19601f8301169050919050565b60006108f3826104d5565b6108fd818561089c565b935061090d8185602086016108ad565b610916816108d7565b840191505092915050565b6000602082019050818103600083015261093b81846108e8565b905092915050565b600081519050919050565b6000819050602082019050919050565b600061096a8251610821565b80915050919050565b600061097e82610943565b826109888461094e565b90506109938161095e565b925060208210156109d3576109ce7fffffffffffffffffffffffffffffffffffffffffffffffffffffffffffffffff83602003600802610594565b831692505b5050919050565b60805160a05160c05160e05161010051610120516101405161224a610a346000396000610f9901526000610f5e015260006114ae0152600061148d01526000610c8a01526000610ce001526000610d09015261224a6000f3fe608060405234801561001057600080fd5b506004361061012c5760003560e01c8063715018a6116100ad578063a9059cbb11610071578063a9059cbb14610329578063bec3fa1714610359578063d505accf14610389578063dd62ed3e146103a5578063f2fde38b146103d55761012c565b8063715018a61461028f5780637ecebe001461029957806384b0196e146102c95780638da5cb5b146102ed57806395d89b411461030b5761012c565b80633644e515116100f45780633644e515146101eb57806340c10f19146102095780635f515226146102255780636bdfbb351461025557806370a082311461025f5761012c565b806306fdde0314610131578063095ea7b31461014f57806318160ddd1461017f57806323b872dd1461019d578063313ce567146101cd575b600080fd5b6101396103f1565b604051610146919061199b565b60405180910390f35b61016960048036038101906101649190611a56565b610483565b6040516101769190611ab1565b60405180910390f35b6101876104a6565b6040516101949190611adb565b60405180910390f35b6101b760048036038101906101b29190611af6565b6104b0565b6040516101c49190611ab1565b60405180910390f35b6101d56104df565b6040516101e29190611b65565b60405180910390f35b6101f36104e8565b6040516102009190611b99565b60405180910390f35b610223600480360381019061021e9190611a56565b6104f7565b005b61023f600480360381019061023a9190611bb4565b61050d565b60405161024c9190611adb565b60405180910390f35b61025d61051f565b005b61027960048036038101906102749190611bb4565b610680565b6040516102869190611adb565b60405180910390f35b6102976106c8565b005b6102b360048036038101906102ae9190611bb4565b6106dc565b6040516102c09190611adb565b60405180910390f35b6102d16106ee565b6040516102e49796959493929190611ce9565b60405180910390f35b6102f5610798565b6040516103029190611d6d565b60405180910390f35b6103136107c2565b604051610320919061199b565b60405180910390f35b610343600480360381019061033e9190611a56565b610854565b6040516103509190611ab1565b60405180910390f35b610373600480360381019061036e9190611a56565b610877565b6040516103809190611ab1565b60405180910390f35b6103a3600480360381019061039e9190611de0565b61088e565b005b6103bf60048036038101906103ba9190611e82565b6109d6565b6040516103cc9190611adb565b60405180910390f35b6103ef60048036038101906103ea9190611bb4565b610a5d565b005b60606003805461040090611ef1565b80601f016020809104026020016040519081016040528092919081815260200182805461042c90611ef1565b80156104795780601f1061044e57610100808354040283529160200191610479565b820191906000526020600020905b81548152906001019060200180831161045c57829003601f168201915b5050505050905090565b60008061048e610ae3565b905061049b818585610aeb565b600191505092915050565b6000600254905090565b6000806104bb610ae3565b90506104c8858285610afd565b6104d3858585610b92565b60019150509392505050565b60006012905090565b60006104f2610c86565b905090565b6104ff610d3d565b6105098282610dc4565b5050565b600061051882610680565b9050919050565b600960003373ffffffffffffffffffffffffffffffffffffffff1673ffffffffffffffffffffffffffffffffffffffff16815260200190815260200160002060009054906101000a900460ff16156105ac576040517f08c379a00000000000000000000000000000000000000000000000000000000081526004016105a390611f6e565b60405180910390fd5b3273ffffffffffffffffffffffffffffffffffffffff163373ffffffffffffffffffffffffffffffffffffffff161461061a576040517f08c379a000000000000000000000000000000000000000000000000000000000815260040161061190611fda565b60405180910390fd5b6001600960003373ffffffffffffffffffffffffffffffffffffffff1673ffffffffffffffffffffffffffffffffffffffff16815260200190815260200160002060006101000a81548160ff02191690831515021790555061067e336107d0610dc4565b565b60008060008373ffffffffffffffffffffffffffffffffffffffff1673ffffffffffffffffffffffffffffffffffffffff168152602001908152602001600020549050919050565b6106d0610d3d565b6106da6000610e46565b565b60006106e782610f0c565b9050919050565b600060608060008060006060610702610f55565b61070a610f90565b46306000801b600067ffffffffffffffff81111561072b5761072a611ffa565b5b6040519080825280602002602001820160405280156107595781602001602082028036833780820191505090505b507f0f00000000000000000000000000000000000000000000000000000000000000959493929190965096509650965096509650965090919293949596565b6000600560009054906101000a900473ffffffffffffffffffffffffffffffffffffffff16905090565b6060600480546107d190611ef1565b80601f01602080910402602001604051908101604052809291908181526020018280546107fd90611ef1565b801561084a5780601f1061081f5761010080835404028352916020019161084a565b820191906000526020600020905b81548152906001019060200180831161082d57829003601f168201915b5050505050905090565b60008061085f610ae3565b905061086c818585610b92565b600191505092915050565b6000610884338484610b92565b6001905092915050565b834211156108d357836040517f627913020000000000000000000000000000000000000000000000000000000081526004016108ca9190611adb565b60405180910390fd5b60007f6e71edae12b1b97f4d1f60370fef10105fa2faae0126114a169c64845d6126c98888886109028c610fcb565b8960405160200161091896959493929190612029565b604051602081830303815290604052805190602001209050600061093b82611022565b9050600061094b8287878761103c565b90508973ffffffffffffffffffffffffffffffffffffffff168173ffffffffffffffffffffffffffffffffffffffff16146109bf57808a6040517f4b800e460000000000000000000000000000000000000000000000000000000081526004016109b692919061208a565b60405180910390fd5b6109ca8a8a8a610aeb565b50505050505050505050565b6000600160008473ffffffffffffffffffffffffffffffffffffffff1673ffffffffffffffffffffffffffffffffffffffff16815260200190815260200160002060008373ffffffffffffffffffffffffffffffffffffffff1673ffffffffffffffffffffffffffffffffffffffff16815260200190815260200160002054905092915050565b610a65610d3d565b600073ffffffffffffffffffffffffffffffffffffffff168173ffffffffffffffffffffffffffffffffffffffff1603610ad75760006040517f1e4fbdf7000000000000000000000000000000000000000000000000000000008152600401610ace9190611d6d565b60405180910390fd5b610ae081610e46565b50565b600033905090565b610af8838383600161106c565b505050565b6000610b0984846109d6565b90507fffffffffffffffffffffffffffffffffffffffffffffffffffffffffffffffff811015610b8c5781811015610b7c578281836040517ffb8f41b2000000000000000000000000000000000000000000000000000000008152600401610b73939291906120b3565b60405180910390fd5b610b8b8484848403600061106c565b5b50505050565b600073ffffffffffffffffffffffffffffffffffffffff168373ffffffffffffffffffffffffffffffffffffffff1603610c045760006040517f96c6fd1e000000000000000000000000000000000000000000000000000000008152600401610bfb9190611d6d565b60405180910390fd5b600073ffffffffffffffffffffffffffffffffffffffff168273ffffffffffffffffffffffffffffffffffffffff1603610c765760006040517fec442f05000000000000000000000000000000000000000000000000000000008152600401610c6d9190611d6d565b60405180910390fd5b610c81838383611243565b505050565b60007f000000000000000000000000000000000000000000000000000000000000000073ffffffffffffffffffffffffffffffffffffffff163073ffffffffffffffffffffffffffffffffffffffff16148015610d0257507f000000000000000000000000000000000000000000000000000000000000000046145b15610d2f577f00000000000000000000000000000000000000000000000000000000000000009050610d3a565b610d37611468565b90505b90565b610d45610ae3565b73ffffffffffffffffffffffffffffffffffffffff16610d63610798565b73ffffffffffffffffffffffffffffffffffffffff1614610dc257610d86610ae3565b6040517f118cdaa7000000000000000000000000000000000000000000000000000000008152600401610db99190611d6d565b60405180910390fd5b565b600073ffffffffffffffffffffffffffffffffffffffff168273ffffffffffffffffffffffffffffffffffffffff1603610e365760006040517fec442f05000000000000000000000000000000000000000000000000000000008152600401610e2d9190611d6d565b60405180910390fd5b610e4260008383611243565b5050565b6000600560009054906101000a900473ffffffffffffffffffffffffffffffffffffffff16905081600560006101000a81548173ffffffffffffffffffffffffffffffffffffffff021916908373ffffffffffffffffffffffffffffffffffffffff1602179055508173ffffffffffffffffffffffffffffffffffffffff168173ffffffffffffffffffffffffffffffffffffffff167f8be0079c531659141344cd1fd0a4f28419497f9722a3daafe3b4186f6b6457e060405160405180910390a35050565b6000600860008373ffffffffffffffffffffffffffffffffffffffff1673ffffffffffffffffffffffffffffffffffffffff168152602001908152602001600020549050919050565b6060610f8b60067f00000000000000000000000000000000000000000000000000000000000000006114fe90919063ffffffff16565b905090565b6060610fc660077f00000000000000000000000000000000000000000000000000000000000000006114fe90919063ffffffff16565b905090565b6000600860008373ffffffffffffffffffffffffffffffffffffffff1673ffffffffffffffffffffffffffffffffffffffff1681526020019081526020016000206000815480929190600101919050559050919050565b600061103561102f610c86565b836115ae565b9050919050565b60008060008061104e888888886115ef565b92509250925061105e82826116e3565b829350505050949350505050565b600073ffffffffffffffffffffffffffffffffffffffff168473ffffffffffffffffffffffffffffffffffffffff16036110de5760006040517fe602df050000000000000000000000000000000000000000000000000000000081526004016110d59190611d6d565b60405180910390fd5b600073ffffffffffffffffffffffffffffffffffffffff168373ffffffffffffffffffffffffffffffffffffffff16036111505760006040517f94280d620000000000000000000000000000000000000000000000000000000081526004016111479190611d6d565b60405180910390fd5b81600160008673ffffffffffffffffffffffffffffffffffffffff1673ffffffffffffffffffffffffffffffffffffffff16815260200190815260200160002060008573ffffffffffffffffffffffffffffffffffffffff1673ffffffffffffffffffffffffffffffffffffffff16815260200190815260200160002081905550801561123d578273ffffffffffffffffffffffffffffffffffffffff168473ffffffffffffffffffffffffffffffffffffffff167f8c5be1e5ebec7d5bd14f71427d1e84f3dd0314c0f7b2291e5b200ac8c7c3b925846040516112349190611adb565b60405180910390a35b50505050565b600073ffffffffffffffffffffffffffffffffffffffff168373ffffffffffffffffffffffffffffffffffffffff16036112955780600260008282546112899190612119565b92505081905550611368565b60008060008573ffffffffffffffffffffffffffffffffffffffff1673ffffffffffffffffffffffffffffffffffffffff16815260200190815260200160002054905081811015611321578381836040517fe450d38c000000000000000000000000000000000000000000000000000000008152600401611318939291906120b3565b60405180910390fd5b8181036000808673ffffffffffffffffffffffffffffffffffffffff1673ffffffffffffffffffffffffffffffffffffffff16815260200190815260200160002081905550505b600073ffffffffffffffffffffffffffffffffffffffff168273ffffffffffffffffffffffffffffffffffffffff16036113b157806002600082825403925050819055506113fe565b806000808473ffffffffffffffffffffffffffffffffffffffff1673ffffffffffffffffffffffffffffffffffffffff168152602001908152602001600020600082825401925050819055505b8173ffffffffffffffffffffffffffffffffffffffff168373ffffffffffffffffffffffffffffffffffffffff167fddf252ad1be2c89b69c2b068fc378daa952ba7f163c4a11628f55a4df523b3ef8360405161145b9190611adb565b60405180910390a3505050565b60007f8b73c3c69bb8fe3d512ecc4cf759cc79239f7b179b0ffacaa9a75d522b39400f7f00000000000000000000000000000000000000000000000000000000000000007f000000000000000000000000000000000000000000000000000000000000000046306040516020016114e395949392919061214d565b60405160208183030381529060405280519060200120905090565b606060ff60001b831461151b5761151483611847565b90506115a8565b81805461152790611ef1565b80601f016020809104026020016040519081016040528092919081815260200182805461155390611ef1565b80156115a05780601f10611575576101008083540402835291602001916115a0565b820191906000526020600020905b81548152906001019060200180831161158357829003601f168201915b505050505090505b92915050565b60006040517f190100000000000000000000000000000000000000000000000000000000000081528360028201528260228201526042812091505092915050565b60008060007f7fffffffffffffffffffffffffffffff5d576e7357a4501ddfe92f46681b20a08460001c111561162f5760006003859250925092506116d9565b60006001888888886040516000815260200160405260405161165494939291906121a0565b6020604051602081039080840390855afa158015611676573d6000803e3d6000fd5b505050602060405103519050600073ffffffffffffffffffffffffffffffffffffffff168173ffffffffffffffffffffffffffffffffffffffff16036116ca57600060016000801b935093509350506116d9565b8060008060001b935093509350505b9450945094915050565b600060038111156116f7576116f66121e5565b5b82600381111561170a576117096121e5565b5b03156118435760016003811115611724576117236121e5565b5b826003811115611737576117366121e5565b5b0361176e576040517ff645eedf00000000000000000000000000000000000000000000000000000000815260040160405180910390fd5b60026003811115611782576117816121e5565b5b826003811115611795576117946121e5565b5b036117da578060001c6040517ffce698f70000000000000000000000000000000000000000000000000000000081526004016117d19190611adb565b60405180910390fd5b6003808111156117ed576117ec6121e5565b5b826003811115611800576117ff6121e5565b5b0361184257806040517fd78bce0c0000000000000000000000000000000000000000000000000000000081526004016118399190611b99565b60405180910390fd5b5b5050565b60606000611854836118bb565b90506000602067ffffffffffffffff81111561187357611872611ffa565b5b6040519080825280601f01601f1916602001820160405280156118a55781602001600182028036833780820191505090505b5090508181528360208201528092505050919050565b60008060ff8360001c169050601f811115611902576040517fb3512b0c00000000000000000000000000000000000000000000000000000000815260040160405180910390fd5b80915050919050565b600081519050919050565b600082825260208201905092915050565b60005b8381101561194557808201518184015260208101905061192a565b60008484015250505050565b6000601f19601f8301169050919050565b600061196d8261190b565b6119778185611916565b9350611987818560208601611927565b61199081611951565b840191505092915050565b600060208201905081810360008301526119b58184611962565b905092915050565b600080fd5b600073ffffffffffffffffffffffffffffffffffffffff82169050919050565b60006119ed826119c2565b9050919050565b6119fd816119e2565b8114611a0857600080fd5b50565b600081359050611a1a816119f4565b92915050565b6000819050919050565b611a3381611a20565b8114611a3e57600080fd5b50565b600081359050611a5081611a2a565b92915050565b60008060408385031215611a6d57611a6c6119bd565b5b6000611a7b85828601611a0b565b9250506020611a8c85828601611a41565b9150509250929050565b60008115159050919050565b611aab81611a96565b82525050565b6000602082019050611ac66000830184611aa2565b92915050565b611ad581611a20565b82525050565b6000602082019050611af06000830184611acc565b92915050565b600080600060608486031215611b0f57611b0e6119bd565b5b6000611b1d86828701611a0b565b9350506020611b2e86828701611a0b565b9250506040611b3f86828701611a41565b9150509250925092565b600060ff82169050919050565b611b5f81611b49565b82525050565b6000602082019050611b7a6000830184611b56565b92915050565b6000819050919050565b611b9381611b80565b82525050565b6000602082019050611bae6000830184611b8a565b92915050565b600060208284031215611bca57611bc96119bd565b5b6000611bd884828501611a0b565b91505092915050565b60007fff0000000000000000000000000000000000000000000000000000000000000082169050919050565b611c1681611be1565b82525050565b611c25816119e2565b82525050565b600081519050919050565b600082825260208201905092915050565b6000819050602082019050919050565b611c6081611a20565b82525050565b6000611c728383611c57565b60208301905092915050565b6000602082019050919050565b6000611c9682611c2b565b611ca08185611c36565b9350611cab83611c47565b8060005b83811015611cdc578151611cc38882611c66565b9750611cce83611c7e565b925050600181019050611caf565b5085935050505092915050565b600060e082019050611cfe600083018a611c0d565b8181036020830152611d108189611962565b90508181036040830152611d248188611962565b9050611d336060830187611acc565b611d406080830186611c1c565b611d4d60a0830185611b8a565b81810360c0830152611d5f8184611c8b565b905098975050505050505050565b6000602082019050611d826000830184611c1c565b92915050565b611d9181611b49565b8114611d9c57600080fd5b50565b600081359050611dae81611d88565b92915050565b611dbd81611b80565b8114611dc857600080fd5b50565b600081359050611dda81611db4565b92915050565b600080600080600080600060e0888a031215611dff57611dfe6119bd565b5b6000611e0d8a828b01611a0b565b9750506020611e1e8a828b01611a0b565b9650506040611e2f8a828b01611a41565b9550506060611e408a828b01611a41565b9450506080611e518a828b01611d9f565b93505060a0611e628a828b01611dcb565b92505060c0611e738a828b01611dcb565b91505092959891949750929550565b60008060408385031215611e9957611e986119bd565b5b6000611ea785828601611a0b565b9250506020611eb885828601611a0b565b9150509250929050565b7f4e487b7100000000000000000000000000000000000000000000000000000000600052602260045260246000fd5b60006002820490506001821680611f0957607f821691505b602082108103611f1c57611f1b611ec2565b5b50919050565b7f546f6b656e20616c726561647920636c61696d65642e00000000000000000000600082015250565b6000611f58601683611916565b9150611f6382611f22565b602082019050919050565b60006020820190508181036000830152611f8781611f4b565b9050919050565b7f436f6e747261637473206e6f7420616c6c6f7765642e00000000000000000000600082015250565b6000611fc4601683611916565b9150611fcf82611f8e565b602082019050919050565b60006020820190508181036000830152611ff381611fb7565b9050919050565b7f4e487b7100000000000000000000000000000000000000000000000000000000600052604160045260246000fd5b600060c08201905061203e6000830189611b8a565b61204b6020830188611c1c565b6120586040830187611c1c565b6120656060830186611acc565b6120726080830185611acc565b61207f60a0830184611acc565b979650505050505050565b600060408201905061209f6000830185611c1c565b6120ac6020830184611c1c565b9392505050565b60006060820190506120c86000830186611c1c565b6120d56020830185611acc565b6120e26040830184611acc565b949350505050565b7f4e487b7100000000000000000000000000000000000000000000000000000000600052601160045260246000fd5b600061212482611a20565b915061212f83611a20565b9250828201905080821115612147576121466120ea565b5b92915050565b600060a0820190506121626000830188611b8a565b61216f6020830187611b8a565b61217c6040830186611b8a565b6121896060830185611acc565b6121966080830184611c1c565b9695505050505050565b60006080820190506121b56000830187611b8a565b6121c26020830186611b56565b6121cf6040830185611b8a565b6121dc6060830184611b8a565b95945050505050565b7f4e487b7100000000000000000000000000000000000000000000000000000000600052602160045260246000fdfea2646970667358221220f894c38abfdae43ba3e786cc7c9a69d0e31f8413ee08951a10e02dd47372539164736f6c634300081c0033",
  "linkReferences": {},
  "deployedLinkReferences": {}
}